{
  "contractName": "CreateTournament",
  "abi": [
    {
      "constant": true,
      "inputs": [
        {
          "name": "tournament",
          "type": "address"
        }
      ],
      "name": "checkAddress",
      "outputs": [
        {
          "name": "",
          "type": "bool"
        }
      ],
      "payable": false,
      "stateMutability": "view",
      "type": "function"
    },
    {
      "constant": false,
      "inputs": [
        {
          "name": "_title",
          "type": "string"
        },
        {
          "name": "_maxParticipants",
          "type": "uint32"
        },
        {
          "name": "_entryFee",
          "type": "uint256"
        },
        {
          "name": "_surcharge",
          "type": "uint256"
        }
      ],
      "name": "createNewTournament",
      "outputs": [
        {
          "name": "",
          "type": "address"
        }
      ],
      "payable": false,
      "stateMutability": "nonpayable",
      "type": "function"
    },
    {
      "constant": true,
      "inputs": [
        {
          "name": "tourny",
          "type": "address",
          "indexed": false
        },
        {
          "indexed": false,
          "name": "organizer",
          "type": "address"
        }
      ],
      "name": "TournamentAddress",
      "outputs": [
        {
          "name": "",
          "type": "address"
        }
      ],
      "payable": false,
      "stateMutability": "view",
      "type": "event",
      "anonymous": false
    },
    {
      "anonymous": false,
      "inputs": [
        {
          "indexed": false,
          "name": "tourny",
          "type": "address"
        },
        {
          "indexed": false,
          "name": "organizer",
          "type": "address"
        }
      ],
      "name": "TournamentAddress",
      "type": "event"
    }
  ],
  "bytecode": "0x6060604052341561000f57600080fd5b6113f08061001e6000396000f30060606040526004361061004c576000357c0100000000000000000000000000000000000000000000000000000000900463ffffffff1680630ddcfe8e14610051578063c2a29866146100a2575b600080fd5b341561005c57600080fd5b610088600480803573ffffffffffffffffffffffffffffffffffffffff16906020019091905050610120565b604051808215151515815260200191505060405180910390f35b34156100ad57600080fd5b61011e600480803590602001908201803590602001908080601f0160208091040260200160405190810160405280939291908181526020018383808284378201915050505050509190803563ffffffff169060200190919080359060200190919080359060200190919050506101c4565b005b6000806000809150600090505b6000805490508110156101ba5760008181548110151561014957fe5b906000526020600020900160009054906101000a900473ffffffffffffffffffffffffffffffffffffffff1673ffffffffffffffffffffffffffffffffffffffff168473ffffffffffffffffffffffffffffffffffffffff1614156101ad57600191505b808060010191505061012d565b8192505050919050565b6000848484846101d261037b565b80806020018563ffffffff1663ffffffff168152602001848152602001838152602001828103825286818151815260200191508051906020019080838360005b8381101561022d578082015181840152602081019050610212565b50505050905090810190601f16801561025a5780820380516001836020036101000a031916815260200191505b5095505050505050604051809103906000f080151561027857600080fd5b90506000805480600101828161028e919061038b565b9160005260206000209001600083909190916101000a81548173ffffffffffffffffffffffffffffffffffffffff021916908373ffffffffffffffffffffffffffffffffffffffff160217905550507f1066397369ed110663059e01462d323176ce7ee4bd9253f41e8fb1cd11ec52318133604051808373ffffffffffffffffffffffffffffffffffffffff1673ffffffffffffffffffffffffffffffffffffffff1681526020018273ffffffffffffffffffffffffffffffffffffffff1673ffffffffffffffffffffffffffffffffffffffff1681526020019250505060405180910390a15050505050565b604051610fe8806103dd83390190565b8154818355818115116103b2578183600052602060002091820191016103b191906103b7565b5b505050565b6103d991905b808211156103d55760008160009055506001016103bd565b5090565b9056006060604052341561000f57600080fd5b604051610fe8380380610fe883398101604052808051820191906020018051906020019091908051906020019091908051906020019091905050336000806101000a81548173ffffffffffffffffffffffffffffffffffffffff021916908373ffffffffffffffffffffffffffffffffffffffff160217905550836001908051906020019061009f929190610125565b508263ffffffff166003819055508160048190555080600581905550600060028190555060006006819055506000600760006101000a81548160ff0219169083151502179055506000600760016101000a81548160ff0219169083151502179055506000600760026101000a81548160ff021916908315150217905550505050506101ca565b828054600181600116156101000203166002900490600052602060002090601f016020900481019282601f1061016657805160ff1916838001178555610194565b82800160010185558215610194579182015b82811115610193578251825591602001919060010190610178565b5b5090506101a191906101a5565b5090565b6101c791905b808211156101c35760008160009055506001016101ab565b5090565b90565b610e0f806101d96000396000f3006060604052600436106100ba576000357c0100000000000000000000000000000000000000000000000000000000900463ffffffff16806304019f5d146100bf57806309e69ede146100e85780632ae39614146101be57806332291dcb146101c857806341c0e1b51461025a5780634d633a8f1461026f57806354ffbddb146102845780636b2bb92a146102e757806388fc8359146102fc578063a604082a1461038a578063bf559d11146103dc578063ff27dc86146103f1575b600080fd5b34156100ca57600080fd5b6100d2610414565b6040518082815260200191505060405180910390f35b34156100f357600080fd5b61011f600480803573ffffffffffffffffffffffffffffffffffffffff1690602001909190505061041e565b60405180806020018381526020018281038252848181546001816001161561010002031660029004815260200191508054600181600116156101000203166002900480156101ae5780601f10610183576101008083540402835291602001916101ae565b820191906000526020600020905b81548152906001019060200180831161019157829003601f168201915b5050935050505060405180910390f35b6101c6610441565b005b34156101d357600080fd5b610258600480803573ffffffffffffffffffffffffffffffffffffffff1690602001909190803573ffffffffffffffffffffffffffffffffffffffff1690602001909190803573ffffffffffffffffffffffffffffffffffffffff169060200190919080359060200190919080359060200190919080359060200190919050506104c0565b005b341561026557600080fd5b61026d6106dc565b005b341561027a57600080fd5b61028261076d565b005b341561028f57600080fd5b6102a560048080359060200190919050506107fb565b604051808273ffffffffffffffffffffffffffffffffffffffff1673ffffffffffffffffffffffffffffffffffffffff16815260200191505060405180910390f35b34156102f257600080fd5b6102fa61083a565b005b341561030757600080fd5b61030f6108ad565b6040518080602001828103825283818151815260200191508051906020019080838360005b8381101561034f578082015181840152602081019050610334565b50505050905090810190601f16801561037c5780820380516001836020036101000a031916815260200191505b509250505060405180910390f35b6103da600480803590602001908201803590602001908080601f01602080910402602001604051908101604052809392919081815260200183838082843782019150505050505091905050610955565b005b34156103e757600080fd5b6103ef610b14565b005b34156103fc57600080fd5b6104126004808035906020019091905050610ba3565b005b6000600654905090565b600860205280600052604060002060009150905080600001908060010154905082565b6000809054906101000a900473ffffffffffffffffffffffffffffffffffffffff1673ffffffffffffffffffffffffffffffffffffffff163373ffffffffffffffffffffffffffffffffffffffff1614156104be57600760029054906101000a900460ff161515156104b257600080fd5b34600654016006819055505b565b6000809054906101000a900473ffffffffffffffffffffffffffffffffffffffff1673ffffffffffffffffffffffffffffffffffffffff163373ffffffffffffffffffffffffffffffffffffffff1614156106d457600454600860008873ffffffffffffffffffffffffffffffffffffffff1673ffffffffffffffffffffffffffffffffffffffff1681526020019081526020016000206001015414151561056757600080fd5b600454600860008773ffffffffffffffffffffffffffffffffffffffff1673ffffffffffffffffffffffffffffffffffffffff168152602001908152602001600020600101541415156105b957600080fd5b600454600860008673ffffffffffffffffffffffffffffffffffffffff1673ffffffffffffffffffffffffffffffffffffffff1681526020019081526020016000206001015414151561060b57600080fd5b61061361076d565b8573ffffffffffffffffffffffffffffffffffffffff166108fc849081150290604051600060405180830381858888f19350505050151561065357600080fd5b8473ffffffffffffffffffffffffffffffffffffffff166108fc839081150290604051600060405180830381858888f19350505050151561069357600080fd5b8373ffffffffffffffffffffffffffffffffffffffff166108fc829081150290604051600060405180830381858888f1935050505015156106d357600080fd5b5b505050505050565b6000809054906101000a900473ffffffffffffffffffffffffffffffffffffffff1673ffffffffffffffffffffffffffffffffffffffff163373ffffffffffffffffffffffffffffffffffffffff16141561076b576000809054906101000a900473ffffffffffffffffffffffffffffffffffffffff1673ffffffffffffffffffffffffffffffffffffffff16ff5b565b6000809054906101000a900473ffffffffffffffffffffffffffffffffffffffff1673ffffffffffffffffffffffffffffffffffffffff163373ffffffffffffffffffffffffffffffffffffffff1614156107f9576001600760016101000a81548160ff0219169083151502179055506001600760026101000a81548160ff0219169083151502179055505b565b60098181548110151561080a57fe5b90600052602060002090016000915054906101000a900473ffffffffffffffffffffffffffffffffffffffff1681565b6000809054906101000a900473ffffffffffffffffffffffffffffffffffffffff1673ffffffffffffffffffffffffffffffffffffffff163373ffffffffffffffffffffffffffffffffffffffff1614156108ab576001600760016101000a81548160ff0219169083151502179055505b565b6108b5610cfe565b60018054600181600116156101000203166002900480601f01602080910402602001604051908101604052809291908181526020018280546001816001161561010002031660029004801561094b5780601f106109205761010080835404028352916020019161094b565b820191906000526020600020905b81548152906001019060200180831161092e57829003601f168201915b5050505050905090565b6000339050600760009054906101000a900460ff161580156109845750600760029054906101000a900460ff16155b8015610991575060045434145b151561099c57600080fd5b600354600254111515156109af57600080fd5b6000600860008373ffffffffffffffffffffffffffffffffffffffff1673ffffffffffffffffffffffffffffffffffffffff16815260200190815260200160002060010154141515610a0057600080fd5b34600860008373ffffffffffffffffffffffffffffffffffffffff1673ffffffffffffffffffffffffffffffffffffffff1681526020019081526020016000206001018190555081600860008373ffffffffffffffffffffffffffffffffffffffff1673ffffffffffffffffffffffffffffffffffffffff1681526020019081526020016000206000019080519060200190610a9d929190610d12565b5060098054806001018281610ab29190610d92565b9160005260206000209001600083909190916101000a81548173ffffffffffffffffffffffffffffffffffffffff021916908373ffffffffffffffffffffffffffffffffffffffff160217905550506005543460065401036006819055505050565b6000809054906101000a900473ffffffffffffffffffffffffffffffffffffffff1673ffffffffffffffffffffffffffffffffffffffff163373ffffffffffffffffffffffffffffffffffffffff161415610ba157600760029054906101000a900460ff16151515610b8557600080fd5b6001600760006101000a81548160ff0219169083151502179055505b565b6000806000809054906101000a900473ffffffffffffffffffffffffffffffffffffffff1673ffffffffffffffffffffffffffffffffffffffff163373ffffffffffffffffffffffffffffffffffffffff161415610cf957610c0361076d565b6000600681905550600091505b600980549050821015610cf857600982815481101515610c2c57fe5b906000526020600020900160009054906101000a900473ffffffffffffffffffffffffffffffffffffffff169050600454600860008373ffffffffffffffffffffffffffffffffffffffff1673ffffffffffffffffffffffffffffffffffffffff168152602001908152602001600020600101541415610ceb578073ffffffffffffffffffffffffffffffffffffffff166108fc84600454039081150290604051600060405180830381858888f193505050501515610cea57600080fd5b5b8180600101925050610c10565b5b505050565b602060405190810160405280600081525090565b828054600181600116156101000203166002900490600052602060002090601f016020900481019282601f10610d5357805160ff1916838001178555610d81565b82800160010185558215610d81579182015b82811115610d80578251825591602001919060010190610d65565b5b509050610d8e9190610dbe565b5090565b815481835581811511610db957818360005260206000209182019101610db89190610dbe565b5b505050565b610de091905b80821115610ddc576000816000905550600101610dc4565b5090565b905600a165627a7a723058208f986c5f92633b839d4a9fe1d80633693f409463b488c60a192b3a97eb59bc050029a165627a7a72305820c704335e3ab652b8bafc0ef1338e0b861608a1f5f828a95b5231c41cbafcd4560029",
  "source": "pragma solidity ^0.4.18;\n\n/* \n\tTourname Solidity contract. \n\tIt creates a Tournament with a fixed umber of participants and distributes Prizes at the end\n*/\t\n\n// The contract definition. A constructor of the same name will be automatically called on contract creation.\ncontract Tournament {\n    address organizer;      // Address of the Tournament organizer - public?\n    string title;          // Tournament title \n    uint entries;           // Actual number of participants\n    uint maxParticipants;   // Maximum number of participants\n    uint entryFee;          // Tournament fee\n    uint surcharge;         // Charge for entering\n    uint prizePool;         // Total pool of prizes\n    bool started;           // Tournament stages\n    bool finished;\n    bool ended;             // Tournament finished and prizes awarded\n\n\n    // Participant record\n    struct Participant {\n        string name;   // short name \n        uint fee;   // entree fee paid\n    }\n    \n    mapping(address => Participant) public participants;    // Participant information\n    address[] public participantAddresses;  // Enumerate participants by address\n\n    // Modifies a function so it only executes if the sender is the organizer\n    modifier onlyOrganizer {\n        if (msg.sender == organizer) {\n            _;\n        }\n    } \n    \n    // The constructor accepts a string input and saves it to the contract's \"greeting\" variable.\n    function Tournament(string _title, uint32 _maxParticipants, uint _entryFee, uint _surcharge) public {\n        organizer = msg.sender;\n        title = _title;\n        maxParticipants = _maxParticipants; // for now, no minimum number\n        entryFee = _entryFee;\n        surcharge = _surcharge;\n        entries = 0;\n        prizePool = 0;\n        started = false;\n        finished = false;\n        ended = false;\n    }\n\n    function tournamentTitle() public constant returns (string) {\n        return title;\n    }\n    \n    // Returns the prize pool amount to calculate winning percentages outside the contract\n    function tournamentPrizePool() public view returns (uint) {\n        return prizePool;\n    }\n    \n    // Enter Tournament, before it started, up to a maximum number of participants, once per address, with a correct fee\n    function enterTournament(string _name) public payable {\n        address e = msg.sender;\n\n    /// Organizer allowed to enter? (msg.sender == organizer)\n        require(!started && !ended && (msg.value == entryFee));\n        require(entries<=maxParticipants);\n        require(participants[e].fee == 0); // did not pay (enter) yet\n        participants[e].fee = msg.value;\n        participants[e].name = _name;\n        participantAddresses.push(e);\n        prizePool = prizePool + msg.value - surcharge;\n    }\n    \n    function startTournament() public onlyOrganizer {\n        require(!ended);\n        started = true;\n    }\n\n    function finishTournament() public onlyOrganizer {\n        finished = true;\n    }\n    \n    function endTournament() public onlyOrganizer {\n        finished = true;\n        ended = true;\n    }\n\n    /// Unwind the Tournament. Control over the surcharge in such an event \n    function returnFees(uint _surcharge) public onlyOrganizer {\n        endTournament();\n        prizePool = 0;\n        /// enumerate participants and send each their entryFee\n        /// length better be equal to entries\n        for (uint i = 0; i < participantAddresses.length; i++) {\n            address p;\n            p = participantAddresses[i];\n\n            // actual paid participant\n            if (participants[p].fee == entryFee) {\n                p.transfer(entryFee - _surcharge);    \n            }\n        }\n    }\n\n    function increasePrize() public payable onlyOrganizer {\n        require(!ended);\n        prizePool = prizePool + msg.value;\n    }\n    \n    function awardPrize(address first, address second, address third, uint firstPrize, uint secondPrize, uint thirdPrize) public onlyOrganizer {\n        require(participants[first].fee == entryFee); // actual paid participant\n        require(participants[second].fee == entryFee);\n        require(participants[third].fee == entryFee);\n        endTournament();\n        first.transfer(firstPrize);\n        second.transfer(secondPrize);\n        third.transfer(thirdPrize);    \n    }\n\n    \n     /**********\n     Standard kill() function to recover funds \n     **********/\n    \n    function kill() public onlyOrganizer { \n        selfdestruct(organizer);       // kills this contract and sends remaining funds back to creator\n    }\n\n}\n\ncontract CreateTournament {\n    address[] newTournaments;\n\n    event TournamentAddress (\n        address tourny,\n        address organizer\n    ); \n\n    function createNewTournament(string _title, uint32 _maxParticipants, uint _entryFee, uint _surcharge) public {\n        address newTournament = new Tournament(_title, _maxParticipants, _entryFee, _surcharge);\n        newTournaments.push(newTournament);\n        TournamentAddress(newTournament, msg.sender);\n    }\n\n    function checkAddress(address tournament) public view returns(bool) {\n        bool exists = false;\n\n        for (uint i = 0; i < newTournaments.length; i++) {\n            if (tournament == newTournaments[i]) {\n                exists = true;\n            }\n        }\n\n        return exists;\n    }\n\n}\n",
  "sourcePath": "/Users/nicbonetto/work/backers/Tournament/contracts/tournament.sol",
  "compiler": {
    "name": "solc",
    "version": "0.4.18+commit.9cf6e910.Emscripten.clang"
  },
  "schemaVersion": "1.0.1",
  "updatedAt": "2018-01-17T21:41:21.230Z"
}